{
  "contractName": "TimelineDB",
  "abi": [
    {
      "constant": true,
      "inputs": [
        {
          "name": "self",
          "type": "TimelineDB.timeline storage"
        },
        {
          "name": "key",
          "type": "uint64"
        }
      ],
      "name": "get",
      "outputs": [
        {
          "name": "",
          "type": "int256"
        }
      ],
      "payable": false,
      "stateMutability": "view",
      "type": "function"
    },
    {
      "constant": false,
      "inputs": [
        {
          "name": "self",
          "type": "TimelineDB.timeline storage"
        },
        {
          "name": "key",
          "type": "uint64"
        },
        {
          "name": "value",
          "type": "int256"
        }
      ],
      "name": "insert",
      "outputs": [
        {
          "name": "replaced",
          "type": "bool"
        }
      ],
      "payable": false,
      "stateMutability": "nonpayable",
      "type": "function"
    },
    {
      "anonymous": false,
      "inputs": [
        {
          "indexed": true,
          "name": "key",
          "type": "uint64"
        },
        {
          "indexed": false,
          "name": "value",
          "type": "int256"
        }
      ],
      "name": "LogPrune",
      "type": "event"
    }
  ],
  "bytecode": "0x6060604052341561000f57600080fd5b61117a8061001e6000396000f30060606040526004361061004c576000357c0100000000000000000000000000000000000000000000000000000000900463ffffffff1680634e8d10d71461005157806394f2156414610090575b600080fd5b61007a600480803590602001909190803567ffffffffffffffff169060200190919050506100dc565b6040518082815260200191505060405180910390f35b6100c2600480803590602001909190803567ffffffffffffffff169060200190919080359060200190919050506101f5565b604051808215151515815260200191505060405180910390f35b60008260010160009054906101000a900467ffffffffffffffff1667ffffffffffffffff168267ffffffffffffffff161015801561014657508260010160089054906101000a900467ffffffffffffffff1667ffffffffffffffff168267ffffffffffffffff1611155b8015610156575060008360020154115b80156101b557508167ffffffffffffffff168360000160008467ffffffffffffffff1667ffffffffffffffff16815260200190815260200160002060000160009054906101000a900467ffffffffffffffff1667ffffffffffffffff16145b15156101c057600080fd5b8260000160008367ffffffffffffffff1667ffffffffffffffff16815260200190815260200160002060010154905092915050565b6000806000428567ffffffffffffffff161115151561021357600080fd5b61021d868661098a565b50610229868686610c0b565b8660000160008767ffffffffffffffff1667ffffffffffffffff168152602001908152602001600020600301819055508560000160008667ffffffffffffffff1667ffffffffffffffff16815260200190815260200160002060000160009054906101000a900467ffffffffffffffff169150838660000160008767ffffffffffffffff1667ffffffffffffffff1681526020019081526020016000206001018190555060008267ffffffffffffffff1611156102e95760019250610981565b600067ffffffffffffffff168660010160089054906101000a900467ffffffffffffffff1667ffffffffffffffff161480156103515750600067ffffffffffffffff168660010160009054906101000a900467ffffffffffffffff1667ffffffffffffffff16145b8015610361575060008660020154145b1561046457848660010160086101000a81548167ffffffffffffffff021916908367ffffffffffffffff16021790558660010160006101000a81548167ffffffffffffffff021916908367ffffffffffffffff16021790555060008660000160008767ffffffffffffffff1667ffffffffffffffff16815260200190815260200160002060020160006101000a81548167ffffffffffffffff021916908367ffffffffffffffff16021790558660000160008767ffffffffffffffff1667ffffffffffffffff16815260200190815260200160002060020160086101000a81548167ffffffffffffffff021916908367ffffffffffffffff160217905550610915565b8560010160009054906101000a900467ffffffffffffffff1667ffffffffffffffff168567ffffffffffffffff16101561059a57848660000160008860010160009054906101000a900467ffffffffffffffff1667ffffffffffffffff1667ffffffffffffffff16815260200190815260200160002060020160086101000a81548167ffffffffffffffff021916908367ffffffffffffffff1602179055508560010160009054906101000a900467ffffffffffffffff168660000160008767ffffffffffffffff1667ffffffffffffffff16815260200190815260200160002060020160006101000a81548167ffffffffffffffff021916908367ffffffffffffffff160217905550848660010160006101000a81548167ffffffffffffffff021916908367ffffffffffffffff1602179055505b8560010160089054906101000a900467ffffffffffffffff1667ffffffffffffffff168567ffffffffffffffff1611156106d057848660000160008860010160089054906101000a900467ffffffffffffffff1667ffffffffffffffff1667ffffffffffffffff16815260200190815260200160002060020160006101000a81548167ffffffffffffffff021916908367ffffffffffffffff1602179055508560010160089054906101000a900467ffffffffffffffff168660000160008767ffffffffffffffff1667ffffffffffffffff16815260200190815260200160002060020160086101000a81548167ffffffffffffffff021916908367ffffffffffffffff160217905550848660010160086101000a81548167ffffffffffffffff021916908367ffffffffffffffff1602179055505b8560010160089054906101000a900467ffffffffffffffff1667ffffffffffffffff168567ffffffffffffffff1610801561073657508560010160009054906101000a900467ffffffffffffffff1667ffffffffffffffff168567ffffffffffffffff16115b15610914576107458686610f9a565b9050808660000160008767ffffffffffffffff1667ffffffffffffffff16815260200190815260200160002060020160086101000a81548167ffffffffffffffff021916908367ffffffffffffffff160217905550848660000160008860000160008567ffffffffffffffff1667ffffffffffffffff16815260200190815260200160002060020160009054906101000a900467ffffffffffffffff1667ffffffffffffffff1667ffffffffffffffff16815260200190815260200160002060020160086101000a81548167ffffffffffffffff021916908367ffffffffffffffff1602179055508560000160008267ffffffffffffffff1667ffffffffffffffff16815260200190815260200160002060020160009054906101000a900467ffffffffffffffff168660000160008767ffffffffffffffff1667ffffffffffffffff16815260200190815260200160002060020160006101000a81548167ffffffffffffffff021916908367ffffffffffffffff160217905550848660000160008367ffffffffffffffff1667ffffffffffffffff16815260200190815260200160002060020160006101000a81548167ffffffffffffffff021916908367ffffffffffffffff1602179055505b5b848660000160008767ffffffffffffffff1667ffffffffffffffff16815260200190815260200160002060000160006101000a81548167ffffffffffffffff021916908367ffffffffffffffff1602179055508560020160008154809291906001019190505550600092505b50509392505050565b6000808360030154846002015410156109a257610c04565b83600301548460020154101580156109e557508360010160009054906101000a900467ffffffffffffffff1667ffffffffffffffff168367ffffffffffffffff16105b1515156109f157600080fd5b8360010160009054906101000a900467ffffffffffffffff1690508360000160008267ffffffffffffffff1667ffffffffffffffff16815260200190815260200160002060020160009054906101000a900467ffffffffffffffff168460010160006101000a81548167ffffffffffffffff021916908367ffffffffffffffff16021790555060008460000160008660010160009054906101000a900467ffffffffffffffff1667ffffffffffffffff1667ffffffffffffffff16815260200190815260200160002060020160086101000a81548167ffffffffffffffff021916908367ffffffffffffffff1602179055508067ffffffffffffffff167f2341025225edad1f585690bb36c849a978c1c9b6b06a8f3e8aca760bbe7268588560000160008467ffffffffffffffff1667ffffffffffffffff168152602001908152602001600020600101546040518082815260200191505060405180910390a28360000160008267ffffffffffffffff1667ffffffffffffffff168152602001908152602001600020600080820160006101000a81549067ffffffffffffffff021916905560018201600090556002820160006101000a81549067ffffffffffffffff02191690556002820160086101000a81549067ffffffffffffffff02191690556003820160009055600482016000610bec9190611048565b50508360020160008154809291906001900391905055505b5092915050565b6000610c1561106c565b600033826000019073ffffffffffffffffffffffffffffffffffffffff16908173ffffffffffffffffffffffffffffffffffffffff168152505060008660000160008767ffffffffffffffff1667ffffffffffffffff168152602001908152602001600020600401805490501415610c9c5781602001805180919060010181525050610daf565b8560000160008667ffffffffffffffff1667ffffffffffffffff16815260200190815260200160002060010154841415610d40578560000160008667ffffffffffffffff1667ffffffffffffffff1681526020019081526020016000206004016000815481101515610d0a57fe5b90600052602060002090600202016001016000815480929190600101919050555081602001805180919060010181525050610dae565b8560000160008667ffffffffffffffff1667ffffffffffffffff1681526020019081526020016000206004016000815481101515610d7a57fe5b9060005260206000209060020201600101600081548092919060019003919050555081602001805180919060019003815250505b5b600090505b8560000160008667ffffffffffffffff1667ffffffffffffffff16815260200190815260200160002060040180549050811015610ea2578560000160008667ffffffffffffffff1667ffffffffffffffff16815260200190815260200160002060040181815481101515610e2457fe5b906000526020600020906002020160000160009054906101000a900473ffffffffffffffffffffffffffffffffffffffff1673ffffffffffffffffffffffffffffffffffffffff163373ffffffffffffffffffffffffffffffffffffffff161415610e955781602001519250610f91565b8080600101915050610db4565b8560000160008667ffffffffffffffff1667ffffffffffffffff1681526020019081526020016000206004018054806001018281610ee0919061109c565b9160005260206000209060020201600084909190915060008201518160000160006101000a81548173ffffffffffffffffffffffffffffffffffffffff021916908373ffffffffffffffffffffffffffffffffffffffff160217905550602082015181600101555050508560000160008667ffffffffffffffff1667ffffffffffffffff1681526020019081526020016000206004018054809190600101610f8891906110ce565b50816020015192505b50509392505050565b6000808360010160089054906101000a900467ffffffffffffffff1690505b8267ffffffffffffffff168167ffffffffffffffff16118015610ff15750600067ffffffffffffffff168167ffffffffffffffff1614155b1561103e578360000160008267ffffffffffffffff1667ffffffffffffffff16815260200190815260200160002060020160089054906101000a900467ffffffffffffffff169050610fb9565b8091505092915050565b50805460008255600202906000526020600020908101906110699190611100565b50565b6040805190810160405280600073ffffffffffffffffffffffffffffffffffffffff168152602001600081525090565b8154818355818115116110c9576002028160020283600052602060002091820191016110c89190611100565b5b505050565b8154818355818115116110fb576002028160020283600052602060002091820191016110fa9190611100565b5b505050565b61114b91905b8082111561114757600080820160006101000a81549073ffffffffffffffffffffffffffffffffffffffff0219169055600182016000905550600201611106565b5090565b905600a165627a7a72305820a5ce0fc4ef41cf248cbc948df52893d68874b8b8cc51ff9bd27f2591afa80ffa0029",
  "source": "pragma solidity ^0.4.18;\n\n// using idea https://github.com/ethereum/dapp-bin/blob/master/library/iterable_mapping.sol\nlibrary TimelineDB {\n\n  \n  uint64 constant internal None = uint64(0);\n  \n  event LogPrune(uint64 indexed key, int value);\n  \n\n  struct timeline\n  {\n    mapping(uint64 => IndexValue) data;\n    uint64 first;  // unixtime\n    uint64 last;  // unixtime\n    uint size;\n    uint MAX_SIZE;\n  }\n  \n  struct IndexValue { \n    uint64 key; \n    int value; \n    uint64 next; \n    uint64 prev; \n    int reputation;\n    Provider[] providers;\n  }\n  \n  struct Provider {\n    address issuer;\n    int reputation;\n  }\n  \n  function get(timeline storage self, uint64 key) view public returns (int) \n  {\n    require(key >= self.first && key <= self.last && self.size > 0 && self.data[key].key == key);\n    //self.data[key].count=self.data[key].count+1;\n    return self.data[key].value;\n  }\n\n  function insert(timeline storage self, uint64 key, int value) public  returns (bool replaced)\n  {\n    require(key <= now);\n    short(self, key);\n    self.data[key].reputation = issuer(self, key, value);\n    \n    uint64 keyIndex = self.data[key].key;\n    self.data[key].value = value;\n    if (keyIndex > 0)\n      return true;\n    else\n    {\n      if (self.last == None && self.first == None && self.size == 0)\n      {\n        self.first = self.last = key;\n        self.data[key].prev = self.data[key].next = None;\n      }      \n      else {\n        if (key < self.first) \n        {\n          self.data[self.first].prev = key;\n          self.data[key].next = self.first;\n          self.first = key;\n        }\n        if (key > self.last)\n        {\n          self.data[self.last].next = key;\n          self.data[key].prev = self.last;\n          self.last = key;\n        }\n        if (key < self.last && key > self.first)\n        {\n          uint64 _key = find(self, key); // return _key < key\n          self.data[key].prev = _key;\n          self.data[self.data[_key].next].prev = key;\n          self.data[key].next = self.data[_key].next;\n          self.data[_key].next = key;\n        }\n      }\n      self.data[key].key = key;\n      self.size++;\n      return false;\n    }    \n  }\n  \n  function short(timeline storage self, uint64 key) internal returns (bool)\n  {\n  \n    //if (self.size >= self.MAX_SIZE && key < self.first) throw;\n    if (self.size <  self.MAX_SIZE) return;\n    \n    require(!(self.size >= self.MAX_SIZE && key < self.first));\n\n    uint64 _key = self.first;\n    self.first = self.data[_key].next;\n    self.data[self.first].prev = None;\n    \n    LogPrune(_key, self.data[_key].value);\n    delete self.data[_key];\n    \n    self.size--;\n  }\n  \n  function find(timeline storage self, uint64 key) view internal  returns (uint64)\n  {\n    uint64 _key = self.last;\n    while(_key > key && _key != None)\n    {\n      _key = self.data[_key].prev;\n    }\n    return _key;\n  }\n  \n  function issuer(timeline storage self, uint64 key, int value) internal returns (int)\n    {\n    Provider memory _provider;\n    _provider.issuer = msg.sender;\n    if(self.data[key].providers.length == 0) _provider.reputation++;\n    else \n    {\n      if (value == self.data[key].value) \n        {\n          self.data[key].providers[0].reputation++;\n          _provider.reputation++;\n        }\n      else {\n        self.data[key].providers[0].reputation--;\n        _provider.reputation--;\n        }\n    }\n    for(uint i = 0; i < self.data[key].providers.length; i++){\n      if (msg.sender == self.data[key].providers[i].issuer){\n        return _provider.reputation;\n      }\n    }\n    self.data[key].providers.push(_provider);\n    self.data[key].providers.length++;\n    return _provider.reputation;\n  }\n\n}",
  "sourcePath": "/home/developer/web/smartoracle/contract/contracts/TimelineDB.sol",
  "compiler": {
    "name": "solc",
    "version": "0.4.18+commit.9cf6e910.Emscripten.clang"
  },
  "schemaVersion": "1.0.1",
  "updatedAt": "2017-12-08T20:19:09.916Z"
}