{
  "contractName": "Vault",
  "abi": [
    {
      "constant": false,
      "inputs": [
        {
          "name": "_newController",
          "type": "address"
        }
      ],
      "name": "changeController",
      "outputs": [],
      "payable": false,
      "stateMutability": "nonpayable",
      "type": "function"
    },
    {
      "constant": true,
      "inputs": [],
      "name": "parent",
      "outputs": [
        {
          "name": "",
          "type": "address"
        }
      ],
      "payable": false,
      "stateMutability": "view",
      "type": "function"
    },
    {
      "constant": false,
      "inputs": [
        {
          "name": "_to",
          "type": "address"
        },
        {
          "name": "_value",
          "type": "uint256"
        }
      ],
      "name": "fund",
      "outputs": [],
      "payable": false,
      "stateMutability": "nonpayable",
      "type": "function"
    },
    {
      "constant": false,
      "inputs": [
        {
          "name": "_newParent",
          "type": "address"
        }
      ],
      "name": "changeParentC",
      "outputs": [],
      "payable": false,
      "stateMutability": "nonpayable",
      "type": "function"
    },
    {
      "constant": false,
      "inputs": [
        {
          "name": "_newParent",
          "type": "address"
        }
      ],
      "name": "changeParent",
      "outputs": [],
      "payable": false,
      "stateMutability": "nonpayable",
      "type": "function"
    },
    {
      "constant": true,
      "inputs": [],
      "name": "controller",
      "outputs": [
        {
          "name": "",
          "type": "address"
        }
      ],
      "payable": false,
      "stateMutability": "view",
      "type": "function"
    },
    {
      "inputs": [],
      "payable": false,
      "stateMutability": "nonpayable",
      "type": "constructor"
    },
    {
      "payable": true,
      "stateMutability": "payable",
      "type": "fallback"
    },
    {
      "anonymous": false,
      "inputs": [
        {
          "indexed": true,
          "name": "to",
          "type": "address"
        },
        {
          "indexed": false,
          "name": "value",
          "type": "uint256"
        }
      ],
      "name": "Payments",
      "type": "event"
    },
    {
      "anonymous": false,
      "inputs": [
        {
          "indexed": true,
          "name": "from",
          "type": "address"
        },
        {
          "indexed": false,
          "name": "value",
          "type": "uint256"
        }
      ],
      "name": "Deposit",
      "type": "event"
    }
  ],
  "bytecode": "0x6060604052341561000f57600080fd5b336000806101000a81548173ffffffffffffffffffffffffffffffffffffffff021916908373ffffffffffffffffffffffffffffffffffffffff16021790555033600160006101000a81548173ffffffffffffffffffffffffffffffffffffffff021916908373ffffffffffffffffffffffffffffffffffffffff1602179055506105ef8061009f6000396000f300606060405260043610610078576000357c0100000000000000000000000000000000000000000000000000000000900463ffffffff1680633cebb8231461011657806360f96a8f1461014f5780637b1837de146101a45780637c236d83146101e65780639b08e8fc1461021f578063f77c479114610258575b3373ffffffffffffffffffffffffffffffffffffffff167fe1fffcc4923d04b559f4d29a8bfc6cda04eb5b0d3c460751c2402c5c5cc9109c346040518082815260200191505060405180910390a23273ffffffffffffffffffffffffffffffffffffffff167fe1fffcc4923d04b559f4d29a8bfc6cda04eb5b0d3c460751c2402c5c5cc9109c346040518082815260200191505060405180910390a2005b341561012157600080fd5b61014d600480803573ffffffffffffffffffffffffffffffffffffffff169060200190919050506102ad565b005b341561015a57600080fd5b61016261034b565b604051808273ffffffffffffffffffffffffffffffffffffffff1673ffffffffffffffffffffffffffffffffffffffff16815260200191505060405180910390f35b34156101af57600080fd5b6101e4600480803573ffffffffffffffffffffffffffffffffffffffff16906020019091908035906020019091905050610371565b005b34156101f157600080fd5b61021d600480803573ffffffffffffffffffffffffffffffffffffffff1690602001909190505061045f565b005b341561022a57600080fd5b610256600480803573ffffffffffffffffffffffffffffffffffffffff169060200190919050506104fe565b005b341561026357600080fd5b61026b61059e565b604051808273ffffffffffffffffffffffffffffffffffffffff1673ffffffffffffffffffffffffffffffffffffffff16815260200191505060405180910390f35b6000809054906101000a900473ffffffffffffffffffffffffffffffffffffffff1673ffffffffffffffffffffffffffffffffffffffff163373ffffffffffffffffffffffffffffffffffffffff1614151561030857600080fd5b806000806101000a81548173ffffffffffffffffffffffffffffffffffffffff021916908373ffffffffffffffffffffffffffffffffffffffff16021790555050565b600160009054906101000a900473ffffffffffffffffffffffffffffffffffffffff1681565b600160009054906101000a900473ffffffffffffffffffffffffffffffffffffffff1673ffffffffffffffffffffffffffffffffffffffff163373ffffffffffffffffffffffffffffffffffffffff161415156103cd57600080fd5b8173ffffffffffffffffffffffffffffffffffffffff166108fc829081150290604051600060405180830381858888f19350505050151561040d57600080fd5b8173ffffffffffffffffffffffffffffffffffffffff167f3d476ad1040b7c53f4279ee863698f162054d1882bf4f671d54cac6d550f4a87826040518082815260200191505060405180910390a25050565b6000809054906101000a900473ffffffffffffffffffffffffffffffffffffffff1673ffffffffffffffffffffffffffffffffffffffff163373ffffffffffffffffffffffffffffffffffffffff161415156104ba57600080fd5b80600160006101000a81548173ffffffffffffffffffffffffffffffffffffffff021916908373ffffffffffffffffffffffffffffffffffffffff16021790555050565b600160009054906101000a900473ffffffffffffffffffffffffffffffffffffffff1673ffffffffffffffffffffffffffffffffffffffff163373ffffffffffffffffffffffffffffffffffffffff1614151561055a57600080fd5b80600160006101000a81548173ffffffffffffffffffffffffffffffffffffffff021916908373ffffffffffffffffffffffffffffffffffffffff16021790555050565b6000809054906101000a900473ffffffffffffffffffffffffffffffffffffffff16815600a165627a7a723058208408aaeb4e0498a6b422040e63af9ce518d760523f56694682953e01fc0e2a1a0029",
  "source": "pragma solidity ^0.4.18;\n\nimport \"./Controlled.sol\";\nimport \"./TimelineDB.sol\";\nimport \"./MiniMeToken.sol\";\n\n/// @dev `Owned` is a base level contract that assigns an `owner` that can be\n///  later changed\ncontract Owned {\n    /// @dev `owner` is the only address that can call a function with this\n    /// modifier\n    modifier onlyOwner { require (msg.sender == owner); _; }\n\n    address public owner;\n\n    /// @notice The Constructor assigns the message sender to be `owner`\n    function Owned() public { owner = msg.sender;}\n\n    /// @notice `owner` can step down and assign some other address to this role\n    /// @param _newOwner The address of the new owner. 0x0 can be used to create\n    ///  an unowned neutral vault, however that cannot be undone\n    function changeOwner(address _newOwner) onlyOwner public {\n        owner = _newOwner;\n    }\n}\n\ncontract EthOra is Controlled, Owned {\n    \n    string public name;                \n    string public symbol;      \n    \n    uint public price;\n    uint64 public period; // in seconds for price cost\n    mapping(address => uint) periods;   // allowed periods in future for accessing data\n    mapping(address => int) reputations;   // allowed periods in future for accessing data\n    MiniMeToken public tokenContract;   // The new token for this Campaign\n    address public vaultAddress;        // The address to hold the funds donated    \n    Vault vault;\n\n    TimelineDB.timeline data;\n    \n    event LogInserted(uint64 indexed key, int reputation, uint64 first, uint64 last, uint size);\n    event LogUpdated(uint64 indexed key, int reputation);\n    event LogGotten(uint64 indexed key);\n    event LogPrune(uint64 indexed key, int value);\n    event LogDeposit(address indexed from, uint value);\n    event LogPeriod(address indexed user, uint period);\n    \n    function EthOra(\n        string _tokenName,\n        string _tokenSymbol,\n        address _vaultAddress,\n        address _tokenAddress,\n        uint _price,\n        uint64 _period,\n        uint _dbsize\n    ) public {\n        require ((_vaultAddress != 0)&&(_tokenAddress != 0));                    // To prevent burning ETH    \n        name = _tokenName;                                 // Set the name\n        symbol = _tokenSymbol;                             // Set the symbol\n        vaultAddress = _vaultAddress;   //0x811AE29096280f3E581a8a0Fb96f3d99504eC1f1\n        tokenContract = MiniMeToken(_tokenAddress);// The Deployed Token Contract 0x966114ea3312d5b9bc2dd7b7539d17fd0cc0ec56 REP 0x39d85e313a5adae404d2979976292f1ff8abcfb2\n        price = _price;\n        period = _period;\n        data.MAX_SIZE = _dbsize > 0 ? _dbsize : 100;\n        vault = Vault(_vaultAddress);\n    }    \n    \n    function () payable public\n    {\n        require((msg.value > 0) && (price > 0) && (period > 0));\n        vault.call.value(msg.value)();\n        uint _period = max(now, periods[msg.sender]);\n        periods[msg.sender] = _period + msg.value / price * period;\n        LogDeposit(msg.sender, msg.value);\n        LogPeriod(msg.sender, periods[msg.sender]);\n    }\n    \n    function insert(int64 _key, int _value) external returns (bool replaced)\n    {\n        require(_key >= 0);\n        periods[msg.sender] = uint(_key) + period;      \n        LogPeriod(msg.sender, periods[msg.sender]);\n        if (!TimelineDB.insert(data, uint64(_key), _value)){\n            LogInserted(uint64(_key),rep(uint64(_key)), data.first, data.last, data.size);\n            return false;\n        }\n        else \n        {\n            LogUpdated(uint64(_key),rep(uint64(_key)));\n            return true;\n        }\n    }\n    \n    function rep(uint64 key) internal returns (int)\n    {\n        if (data.data[key].providers.length > 10 ){\n            for(uint i=0; i< data.data[key].providers.length; i++)\n            {\n                reputations[data.data[key].providers[i].issuer] += data.data[key].providers[i].reputation;\n            }\n            reputations[msg.sender] += data.data[key].reputation;\n        }\n        \n        return reputations[msg.sender];\n    }\n    \n    function get(int64 _key) external returns (uint64 key, int value)\n    {\n        return _get(uint64(_key));\n    }\n    \n    function _get(uint64 _key) internal returns (uint64 key, int value)\n    {\n        require((_key >= 0) && (now <= periods[msg.sender]));\n        int _value = TimelineDB.get(data, _key);\n        LogGotten(_key);\n        return (_key, _value);\n    }\n    \n    function getLast() external returns (uint64 key, int value)\n    {\n        return _get(data.last);\n    }\n    \n    function getFirst() external returns (uint64 key, int value)\n    {\n        return  _get(data.first);\n    }    \n    \n    function setPrice(uint _price, uint64 _period) onlyOwner public\n    {\n        price = _price;\n        period = _period;\n    }\n    \n    function getPeriod() public view returns (uint)\n    {\n        return periods[msg.sender];\n    }\n\n    function getReputation(address issuer) public view returns (int)\n    {\n        if(issuer == address(0)) return reputations[msg.sender];\n        else return reputations[issuer];\n    }\n\n    function max(uint a, uint b) pure internal returns (uint) {\n        return a > b ? a : b;\n    }\n\n}\n\ncontract Vault is Controlled{\n\n    modifier onlyParent { require (msg.sender == parent); _; }\n\n    address public parent;\n    \n    event Payments(address indexed to, uint value);\n    event Deposit(address indexed from, uint value);\n\n    function Vault() public { parent = msg.sender;}\n\n    function changeParent(address _newParent) onlyParent public {\n        parent = _newParent;\n    }    \n\n    function changeParentC(address _newParent) onlyController public {\n        parent = _newParent;\n    }        \n    \n    function () payable public {\n        Deposit(msg.sender, msg.value);\n        Deposit(tx.origin, msg.value);\n    }\n    \n    function fund(address _to, uint _value) onlyParent public\n    {\n        require(_to.send(_value));\n        Payments(_to, _value);\n    }\n}",
  "sourcePath": "/home/developer/web/smartoracle/contract/contracts/EthOra.sol",
  "compiler": {
    "name": "solc",
    "version": "0.4.18+commit.9cf6e910.Emscripten.clang"
  },
  "schemaVersion": "1.0.1",
  "updatedAt": "2017-12-08T20:19:09.932Z"
}